:04000000E7EF01F035
:100008005382D9CF05F0DACF06F0F2A446D1F294A4
:100018004850016E49500B6E01C00CF04B50D8A4EB
:100028001AD001019B05D8B416D05C4B5D2B5C51EE
:10003800016E5D51026E036A046A3B51015C3C51DA
:1000480002583D5103583E510458D8A009D0010E1A
:10005800A46F000E02D0000E01015D6F000E5C6FF0
:100068004850D8A409D03FC13BF140C13CF141C13F
:100078003DF142C13EF108D0640E3B6F000E3C6F6B
:10008800000E3D6F000E3E6F0001F651D8A403D05C
:1000980001015A4B5B2B4950D8A404D00B0E086EB3
:1000A800B80E03D0000E086E640E076E07500101EB
:1000B8005A5D08505B59D8A007D0000E5B6F000E40
:1000C8005A6F010E0001F66F82A221D04950D8A4C0
:1000D8001ED04B50D8A41BD04E50D8A418D0000125
:1000E800F551D8A414D04D50D8A411D04C50D8A450
:1000F8000ED00101524B532B700E525D170E5359FF
:10010800D8A005D0000E536F000E526F82920101E5
:10011800564B572B575104E1640E565DD8A006D0B4
:10012800000E576F000E566F010E896F62510B1843
:1001380004E163510C18D8B40DD00B500C10D8B48E
:1001480009D04F6A000E376F000E386F000E396FF6
:10015800000E3A6F0BC062F10CC063F14F50D8B477
:1001680019D0010E3727000E382339233A233A5184
:1001780008E1900E375D5F0E3859010E3959D8A045
:1001880009D04F6A000E376F000E386F000E396FB6
:10019800000E3A6F0B500C10D8B42AD0010EA26F83
:1001A800A16B604B612B615104E1640E605DD8A0C6
:1001B8002FD0000E616F000E606F5250D8A402D08D
:1001C800010E01D0000E526E52B002D08A9E01D0AC
:1001D8008A8E0A6A4F50D8A405D05250D8B402D09B
:1001E800010E0A6E0AB002D0809C01D0808C10D01B
:1001F8008A9E809CA26B4F6A000E376F000E386F84
:10020800000E396F000E3A6F000E636F000E626FBA
:100218004E50D8A40AD00001F551D8A406D04D50AC
:10022800D8A403D04C50D8B41DD00101544B552B41
:10023800700E545D170E5559D8A019D0000E556F81
:10024800000E546F010E9E6F4C6A4D6A0001F56BEB
:100258004E6A010E0101976F010E986F010E0001A1
:10026800F46F05D0000E0101556F000E546F0101A7
:100278006751D8B40ED0464B472B475104E1640E62
:10028800465DD8A006D0000E476F000E466F696B1A
:10029800676BFF0ED76E640ED66E7EA273D07E9209
:1002A8000001FD2F6AD0140EFD6FE18184B0E19149
:1002B800E1B3E1B106D0F40EE25D010EE359D8A036
:1002C800E185E1A105D00A0EE227000EE32304D060
:1002D800000EE36F000EE26FE193E1B1E183DE818E
:1002E80084B2DE91DEB3DEB106D0F40EDF5D010E1E
:1002F800E059D8A0DE85DEA105D00A0EDF27000E62
:10030800E02304D0000EE06F000EDF6FDE93DEB155
:10031800DE83E78184B4E791E7B3E7B106D0F40E52
:10032800E85D010EE959D8A0E785E7A105D00A0ED6
:10033800E827000EE92304D0000EE96F000EE86FED
:10034800E793E7B1E783E48182B0E491E4B3E4B1F1
:1003580006D0F40EE55D010EE659D8A0E485E4A1C7
:1003680005D00A0EE527000EE62304D0000EE66F3E
:10037800000EE56FE493E4B1E483FE0E0F01506FC5
:10038800180E4F6F9EAA19D0AECF09F0050E476020
:1003980009D0320E4724D96EDA6A010EDA2209C072
:1003A800DFFF472A040E476407D0476A010E0001A1
:1003B800EC6F0101696B676B9E9A06C0DAFF05C096
:1003C800D9FF539211000BEF2EF0780E896F8A6BCC
:1003D800DDEF07F0250EA119D8B40AD074C0D9FFF3
:1003E80075C0DAFFA1C0DFFF744B752BDDEF07F096
:1003F800000E9E6F000E9D6F000E986F000E976F97
:1004080003D09785764B772B76C0F6FF77C0F7FF3A
:100418000800F550300AD8B4F4D776C0F6FF77C094
:10042800F7FF0800F550DAEC36F0D8A031D0000E0E
:1004380000019E6F000E9D6F9DC00DF09EC00EF0D6
:10044800000E106E0A0E0F6E58EC36F00DC09DF0BF
:100458000EC09EF076C0F6FF77C0F7FF0800F5CF14
:1004680080F0D00E00018025816F826BFF0E822301
:1004780081519D2782519E23764B772B76C0F6FFBC
:1004880077C0F7FF0800F550DAEC36F0D8B0D4D7CB
:1004980076C0F6FF77C0F7FF0800F5502E0AD8A4FB
:1004A80036D00001988D764B772B000EA06F000E8A
:1004B8009F6F22D09FC00DF0A0C00EF0000E106EEE
:1004C8000A0E0F6E58EC36F00DC09FF00EC0A0F06B
:1004D80076C0F6FF77C0F7FF0800F5CF80F0D00EA2
:1004E80000018025816F826BFF0E822381519F2737
:1004F8008251A023764B772B76C0F6FF77C0F7FFA3
:100508000800F550DAEC36F0D8A0ABD0D3D7000EFF
:100518000001A06F000E9F6F9889A3D09885C0D066
:1005280089C0D9FF8AC0DAFFDECF87F0DDCF88F037
:10053800020E8927000E8A2387518811D8A404D077
:10054800680E876FFF0E886F000E8C6F000E8B6F22
:1005580003D000018B4B8C2B8B518725806F8C51DE
:100568008821816F80C0F6FF81C0F7FF000EF86E0A
:100578000F0EF76403D00800F55005D0F6CFE9FF59
:10058800F7CFEAFFEF500009D8A4E3D700019F5145
:10059800A011D8B40ED08B519F5DA051800A806FF6
:1005A8008C51800A8059D8B004D09FC08BF0A0C06D
:1005B8008CF09D518B5D9E518C59D8B005D08B51D4
:1005C8009D5F8C519E5B0DD0000E9E6F000E9D6F3F
:1005D80008D074C0D9FF75C0DAFF200EDF6E744BE7
:1005E800752B9D07D8A09E079D29F3E19E29D8B4B5
:1005F8001CD0EFD787C0F6FF88C0F7FF000EF86E53
:1006080074C0D9FF75C0DAFF0F0EF76403D0080075
:10061800F55005D0F6CFE9FFF7CFEAFFEF50DF6ED0
:100628000001874B882B744B752B8B07D8A08C0740
:100638008B29E0E18C29D8B4DDEF07F0DBD789C03E
:10064800D9FF8AC0DAFFDF50A16F020E8927000E9A
:100658008A23A10E876F886B000E8C6F010E8B6F3B
:1006680095D776C0F6FF77C0F7FF0001764B772B5A
:100678000800F5CFA1F0A151000AD8B4EAEF07F0BD
:10068800630AD8B4DCD7070AD8B40AD0020AD8B4A7
:1006980045D70F0AD8B404D01A0AD8B441D7D9D745
:1006A800070E9815D8B459D398A904D0000EA06F96
:1006B800060E9F6F89C0D9FF8AC0DAFFDECF99F096
:1006C800DECF9AF0DECF9BF0DECF9CF0040E8927B8
:1006D800000E8A239CAF14D099C00DF09AC00EF07A
:1006E8009BC00FF09CC010F087EC35F00DC099F05E
:1006F8000EC09AF00FC09BF010C09CF0030E971329
:10070800000E966F000E956F99C00DF09AC00EF00E
:100718009BC00FF09CC010F0000E116E000E126E00
:10072800000E136E000E146E37EC2FF0D8B082D086
:100738009B359C35820F956F966BFF0E9623950718
:10074800D8A0960795C00DF096C00EF0000E106E5A
:10075800030E0F6E58EC36F00DC095F00EC096F0F3
:1007680095C013F096C014F0000E166E0A0E156EA2
:10077800BEEC2FF013C095F014C096F0000196AFB0
:1007880003D09507D8A096079551000886EC0DF080
:1007980034C08DF035C08EF036C08FF037C090F081
:1007A8008DC01BF08EC01CF08FC01DF090C01EF0D5
:1007B80099C01FF09AC020F09BC021F09CC022F085
:1007C800E8EC12F01BC08DF01CC08EF01DC08FF03D
:1007D8001EC090F08DC00DF08EC00EF08FC00FF0CF
:1007E80090C010F0000E116E000E126E800E136E87
:1007F8003F0E146ED7EC2BF0D8B005D0000195074A
:10080800D8A0960717D08DC00DF08EC00EF08FC0FF
:100818000FF090C010F0000E116E000E126E200E38
:10082800136E410E146ED7EC2BF0D8A003D0000144
:10083800954B962B0001A0BF06D0A05121E10D0ECB
:100848009F5DD8B01DD099C060F09AC061F09BC080
:1008580062F09CC063F09F511EEC1DF034C064F040
:1008680035C065F036C066F037C067F099EC17F010
:1008780060C099F061C09AF062C09BF063C09CF0C0
:1008880096BF06D0965131E10A0E955DD8B02DD0AD
:1008980099C00DF09AC00EF09BC00FF09CC010F0EC
:1008A800000E116E000E126E000E136E000E146E06
:1008B80037EC2FF0D8B064D099C03DF09AC03EF024
:1008C8009BC03FF09CC040F0A4EC2CF03D503E1083
:1008D8003F104010D8A454D0000196BF51D0965173
:1008E80004E1020E955DD8A04BD08DC00DF08EC0EE
:1008F8000EF08FC00FF090C010F05F0E116E700EEA
:10090800126E890E136E400E146ED7EC2BF0D8B011
:1009180003D00001F70E02D00001F80E9527FF0E54
:100928009623955186EC0DF034C08DF035C08EF0CD
:1009380036C08FF037C090F099C00DF09AC00EF015
:100948009BC00FF09CC010F08DC011F08EC012F04B
:100958008FC013F090C014F0F3EC2AF00DC091F0A2
:100968000EC092F00FC093F010C094F0000E00017A
:10097800996F000E9A6F000E9B6F000E9C6F3BD014
:1009880099C03DF09AC03EF09BC03FF09CC040F03B
:10099800A4EC2CF03DC091F03EC092F03FC093F023
:1009A80040C094F099C06CF09AC06DF09BC06EF096
:1009B8009CC06FF091C00DF092C00EF093C00FF084
:1009C80094C010F0000E80EC22F00DC070F00EC044
:1009D80071F00FC072F010C073F0EAEC33F06CC025
:1009E80099F06DC09AF06EC09BF06FC09CF0000E3D
:1009F800966F000E956F010EA16F0A0EA119D8B45B
:100A080018D0A151040D4B0EF324F66EFB0EF42002
:100A1800F76E0900F550915D0900F55092590900EB
:100A2800F55093590900F5509459D8A002D0A12B3C
:100A3800E4D7A1519F25806F000EA021816F9551A9
:100A480080279651812380519D5F81519E5B9F51E4
:100A5800A011D8B403D09D07D8A09E0797C080F0F6
:100A6800030E8017D8B403D09D07D8A09E0797A57A
:100A78002DD097C080F0030E8017D8B414D074C05E
:100A8800D9FF75C0DAFF2D0EDF6E744B752B0BD0B6
:100A980074C0D9FF75C0DAFF300EDF6E744B752B4A
:100AA8009D07D8A09E079EBF6FD09E51F1E19D057E
:100AB800D8A06AD0EDD774C0D9FF75C0DAFF200E70
:100AC800DF6E744B752B9D07D8A09E079EBF05D07F
:100AD8009E51F1E19D05D8B0EED797C080F0030E86
:100AE8008017D8B451D074C0D9FF75C0DAFF2D0E65
:100AF800DF6E744B752B48D091C00DF092C00EF08C
:100B080093C00FF094C010F0A151040D4B0EF324C4
:100B1800F66EFB0EF420F76E0900F5CF11F0090010
:100B2800F5CF12F00900F5CF13F00A00F5CF14F055
:100B3800FFEC2FF00DC08DF00EC08EF00FC08FF0BF
:100B480010C090F08DC01AF08EC01BF08FC01CF042
:100B580090C01DF00A0E1E6E000E1F6E000E206E55
:100B6800000E216EE5EC32F01AC08DF01BC08EF03D
:100B78001CC08FF01DC090F000018D51300F74C063
:100B8800D9FF75C0DAFFB4D7A107A129D8B40CD012
:100B9800B3D774C0D9FF75C0DAFF300EDF6E744B5F
:100BA800752B9507D8A0960796BF05D09651F1E109
:100BB8009505D8B0EED7A0BF09D0A05104E1090E21
:100BC8009F5DD8A003D0080EA16F02D09FC0A1F0EE
:100BD800A1519F5F000EA05BA151D8B408D074C08A
:100BE800D9FF75C0DAFF2E0EDF6E744B752BA1513D
:100BF80086EC0DF034C083F035C084F036C085F043
:100C080037C086F099C01FF09AC020F09BC021F031
:100C18009CC022F083C01BF084C01CF085C01DF06E
:100C280086C01EF0E8EC12F01BC03DF01CC03EF080
:100C38001DC03FF01EC040F0A4EC2CF03DC091F068
:100C48003EC092F03FC093F040C094F070D091C085
:100C58000DF092C00EF093C00FF094C010F0A151A7
:100C6800040D4B0EF324F66EFB0EF420F76E09000C
:100C7800F5CF11F00900F5CF12F00900F5CF13F008
:100C88000A00F5CF14F0FFEC2FF00DC08DF00EC068
:100C98008EF00FC08FF010C090F08DC01AF08EC08B
:100CA8001BF08FC01CF090C01DF00A0E1E6E000EC7
:100CB8001F6E000E206E000E216EE5EC32F01AC099
:100CC8008DF01BC08EF01CC08FF01DC090F000018D
:100CD8008D51300F74C0D9FF75C0DAFFDF6E744BC9
:100CE800752B91C01AF092C01BF093C01CF094C0F1
:100CF8001DF0A151040D4B0EF324F66EFB0EF420EB
:100D0800F76E0900F5CF1EF00900F5CF1FF00900B6
:100D1800F5CF20F00A00F5CF21F0E5EC32F01AC04B
:100D280091F01BC092F01CC093F01DC094F000011C
:100D3800A107A129D8B40CD08AD774C0D9FF75C02F
:100D4800DAFF300EDF6E744B752B9F07D8A0A00713
:100D58009F51A011D8B42DD1F0D789C0D9FF8AC02E
:100D6800DAFFDECF91F0DDCF92F0000E92BFFF0EDA
:100D7800936F946F020E8927000E8A2394AF0AD0CE
:100D8800030E9713941F931F921F916D000E9223C9
:100D9800932394239F51A011D8A408D09151921164
:100DA80093119411D8A402D09F4BA02B010EA16FD0
:100DB8000A0EA119D8B418D0A151040D4B0EF32472
:100DC800F66EFB0EF420F76E0900F550915D0900F0
:100DD800F55092590900F55093590900F550945966
:100DE800D8A002D0A12BE4D7A151806F816B9F516D
:100DF800805D8151800A826FA051800A8259D8B0E3
:100E080003D09FC0A1F010D0A151806F816B805199
:100E18009F5DA051800A826F8151800A8259D8B0A3
:100E280003D0A1C09FF0A06B9D519E11D8B409D0EA
:100E380097C080F0030E8017D8B403D09D07D8A0C0
:100E48009E0798AD13D09D519F5DA051800A806F79
:100E58009E51800A8059D8B005D09F519D5FA051FE
:100E68009E5B04D0000E9E6F000E9D6FA151806F97
:100E7800816B9D51805D8151800A826F9E51800AED
:100E88008259D8B005D0A1519D5F000E9E5B04D059
:100E9800000E9E6F000E9D6F97A51ED097C080F024
:100EA800030E8017D8B408D074C0D9FF75C0DAFF14
:100EB8002D0EDF6E744B752B9D519E11D8B471D0D9
:100EC80074C0D9FF75C0DAFF300EDF6E744B752B16
:100ED8009D07D8A09E07F0D79D519E11D8B40FD07A
:100EE80074C0D9FF75C0DAFF200EDF6E744B752B06
:100EF8009D07D8A09E079D519E11D8A4F1D797C0F1
:100F080080F0030E8017D8B44CD074C0D9FF75C0D8
:100F1800DAFF2D0EDF6E744B752B43D09FC080F027
:100F2800A0C081F0D89080378137D890803781373A
:100F38004B0E8025F66EFB0E8121F76E0900F5CF6A
:100F480011F00900F5CF12F00900F5CF13F00A00EF
:100F5800F5CF14F091C00DF092C00EF093C00FF0D1
:100F680094C010F0FFEC2FF00DC01AF00EC01BF06B
:100F78000FC01CF010C01DF00A0E1E6E000E1F6E72
:100F8800000E206E000E216EE5EC32F01A50300F84
:100F98000001A16F74C0D9FF75C0DAFFA1C0DFFFDF
:100FA800BAD79F07D8A0A0079F29B8E1A029D8A43D
:100FB800B5D776C0F6FF77C0F7FF764B772B0800DA
:100FC800F5CFA1F0A151D8A4EEEF01F074C0D9FF7C
:100FD80075C0DAFFDF6A12000001B46BB56BB66B3F
:100FE800B76BB96BB86BF46BD2C0ACF0D3C0ADF0D3
:100FF800D4C0AEF0D5C0AFF0D151D8A402D0FB997F
:1010080001D0FB89000E126ED3C013F02E0E31EC06
:1010180036F0000E126ED4C013F02F0E31EC36F0FD
:101028008282000E01015D6F000E5C6FA46B000EE2
:10103800126E460E136E690E146EF80E156E010EC2
:10104800166E1E0E7CEC32F0060E126E090E136E32
:101058002A0E146EFD0E156E000E166E000E7CEC38
:1010680032F0010E106E000EBDEC36F0F40E216E5B
:10107800FF0E226E000E236E18EC33F0010E126E76
:10108800090E136E210E146EFD0E156E000E166EEF
:10109800730E7CEC32F0060E126E090E136E180EEB
:1010A800146EFD0E156E000E166E730E7CEC32F08B
:1010B800A5D2B951D8A402D0B46B05D0B905D8A42B
:1010C80006D0010EB46FB56BB66BB76B1AD0020EB3
:1010D800B919D8A404D0B46B010EB56FF5D7030EB7
:1010E800B919D8A405D0B46BB56B010EB66FEDD79E
:1010F800040EB919D8A405D0B46BB56BB66B010E44
:10110800B76FE4A549D0E495B905D8A40ED0D32982
:10111800D8A402D0D36902D0050ED327000E126ED0
:10112800D3C013F02E0E31EC36F0020E0001B919BF
:10113800D8A40ED0D429D8A402D0D46902D0050EE0
:10114800D427000E126ED4C013F02F0E31EC36F0F7
:10115800030E0001B919D8A40ED0D529D8A402D0FD
:10116800D56902D0050ED527000E126ED5C013F032
:101178002F0E31EC36F0040E0001B919D8A40CD0AA
:10118800D229D8B403D0D251D8A402D0D26B01D07E
:10119800D207D251F4EC36F00001E7A547D0E79525
:1011A800B905D8A40ED0050ED36102D0D36B02D0F6
:1011B800050ED35F000E126ED3C013F02E0E31EC65
:1011C80036F0020E0001B919D8A40ED0050ED4616C
:1011D80002D0D46B02D0050ED45F000E126ED4C0BC
:1011E80013F02F0E31EC36F0030E0001B919D8A414
:1011F8000ED0050ED56102D0D56B02D0050ED55F95
:10120800000E126ED5C013F02F0E31EC36F0040E1E
:101218000001B919D8A40AD01E0ED26503D01E0E3B
:10122800D26F01D0D22BD251F4EC36F00001D35159
:101238008EEC25F06DC0B0F06EC0B1F06FC0B2F0AA
:1012480070C0B3F00001D4518EEC25F06DC0A4F04D
:101258006EC0A5F06FC0A6F070C0A7F00001D55110
:101268008EEC25F06DC0A8F06EC0A9F06FC0AAF092
:1012780070C0ABF0030E106E0F0EBDEC36F000011F
:10128800D151D8A413D0A80E746F010E756FD30E68
:10129800766FFD0E776FB0C078F0B1C079F0B2C04C
:1012A8007AF0B3C07BF0E9EC01F012D0A80E746FAD
:1012B800010E756FE20E766FFD0E776FB0C078F095
:1012C800B1C079F0B2C07AF0B3C07BF0E9EC01F0BC
:1012D800A80E216E010E226EB4C023F018EC33F074
:1012E800040E106E0F0EBDEC36F0A80E0001746FE0
:1012F800010E756FF10E766FFD0E776FA4C078F052
:10130800A5C079F0A6C07AF0A7C07BF0E9EC01F09F
:10131800A80E216E010E226EB5C023F018EC33F032
:10132800050E106E0F0EBDEC36F0A80E0001746F9E
:10133800010E756F000E766FFE0E776FA8C078F0FD
:10134800A9C079F0AAC07AF0ABC07BF0E9EC01F053
:10135800A80E216E010E226EB6C023F018EC33F0F1
:10136800070E106E0F0EBDEC36F0A80E0001746F5C
:10137800010E756F430E766FFE0E776FD2C078F050
:10138800796BE9EC01F0A80E216E010E226EB7C050
:1013980023F018EC33F00001B951D8A41BD02FEC7E
:1013A80037F00001FA91FA93FA95FA97FA99FA9BAD
:1013B800FA9DFA9FFB91FB93FB85FB97FAC00DF012
:1013C800FBC00EF0D1EC34F0000E0D6E000E31ECC7
:1013D80034F0B3D0B905D8A42AD0B851D8A427D0AE
:1013E800FA81FA83FA95FA97FA99FA9BFA9DFA9F85
:1013F800FB81FB85FB97FAC00DF0FBC00EF0D1EC2A
:1014080034F0150E0001A36F4B0EA26FBE0EE82E2E
:10141800FED7A22FFCD7A32FFAD70000010E0D6E1E
:10142800010E31EC34F0010E0001B86F86D0020EC7
:10143800B919D8A427D0B851D8A424D0FA91FA93CE
:10144800FA85FA87FA99FA9BFA9DFA9FFB81FB8540
:10145800FB97FAC00DF0FBC00EF0D1EC34F0150E7E
:101468000001A36F4B0EA26FBE0EE82EFED7A22F6F
:10147800FCD7A32FFAD70000010E0D6E010E31EC38
:1014880034F0D1D7030EB919D8A427D0B851D8A4AD
:1014980024D0FA91FA93FA85FA87FA99FA9BFA9D79
:1014A800FA9FFB81FB85FB97FAC00DF0FBC00EF09D
:1014B800D1EC34F0150E0001A36F4B0EA26FBE0ED7
:1014C800E82EFED7A22FFCD7A32FFAD70000010ED3
:1014D8000D6E010E31EC34F0A6D7040EB919D8A45C
:1014E8002CD037EC37F00009D8A427D00001FA91A6
:1014F800FA93FA95FA97FA89FA8BFA9DFA9FFB8183
:10150800FB85FB97FAC00DF0FBC00EF0D1EC34F070
:10151800150E0001A36F4B0EA26FBE0EE82EFED76C
:10152800A22FFCD7A32FFAD70000010E0D6E010ED3
:1015380031EC34F0050EE8EC36F00001E1A50DD0F1
:10154800E195B86B000E0D6E000E31EC34F0000121
:10155800B92B040EB96501D0B96BDEB503D0F4051B
:10156800D8A44CD0DE95010EF46F010E0101A46FD2
:101578000001FA91FA93FA95FA97FA99FA9BFA9D6B
:10158800FA9FFB91FB93FB85FB97FAC00DF0FBC01C
:101598000EF0D1EC34F02FEC37F0000E0D6E000E8B
:1015A80031EC34F00001AC51D219D8B405D0D2C016
:1015B8000DF0150EDFEC35F00001AD51D319D8B49C
:1015C80005D0D3C00DF0160EDFEC35F00001AE519A
:1015D800D419D8B405D0D4C00DF0170EDFEC35F00F
:1015E8000001AF51D519D8B405D0D5C00DF0180EEB
:1015F800DFEC35F045EC36F07CEC2FF00001F4051B
:10160800D8B4120056D52B6A1F6A206A216A226A4A
:10161800010E276E296A286A2A6A00C123F001C1CF
:1016280025F002C124F003C126F045EC36F0910EF6
:10163800126ED90E136EC2EC33F060D20001E7A52A
:101648002CD0E7952B50D8A407D0232A040E2318B2
:10165800D8A423D0236A21D02B04D8A408D0252AC3
:10166800070E2518D8A419D0010E256E16D0020E23
:101678002B18D8A407D0242A040E2418D8A40DD0D7
:10168800246A0BD0030E2B18D8A407D0262A070EDD
:101698002618D8A402D0010E266EE4A52AD0E49517
:1016A8002B50D8A407D023062350D8A422D0030E49
:1016B800236E1FD02B04D8A407D025062528D8A42C
:1016C80018D0060E256E15D0020E2B18D8A407D0F8
:1016D80024062450D8A40DD0030E246E0AD0030E7D
:1016E8002B18D8A406D026062628D8A402D0060E81
:1016F800266EE1A5A3D0E1952B2A030E2B6401D019
:101708002B6A2B50D8A414D01F50D8A411D0910EF6
:10171800126ED90E136EC2EC33F0010E1F6E206AE2
:10172800216A226A010E276E296A286A2A6A86D0E7
:101738002B04D8A412D02050D8A40FD0910E126E2A
:10174800D50E136EC2EC33F01F6A010E206E216AAB
:10175800226A276A010E296EE8D7020E2B18D8A430
:1017680013D02150D8A410D0910E126ED10E136E42
:10177800C2EC33F01F6A206A010E216E226A276AC2
:10178800296A010E286ED2D7030E2B18D8A456D07A
:101798002250D8A453D0910E126ECD0E136EC2EC07
:1017A80033F01F6A206A216A010E226E276A296AAD
:1017B800286A010E2A6E42D0020E126E1E0E136E99
:1017C800970E146EFC0E156E27C016F0400E7CECBA
:1017D80032F00101006B9DD0020E126E1E0E136EC8
:1017E800770E146EFC0E156E27C016F0400E7CECBA
:1017F80032F0010E0ED0020E126E1E0E136EB70ED0
:10180800146EFC0E156E27C016F0400E7CEC32F0FC
:10181800020E0101006F7DD0020E126E1E0E136EB5
:10182800570E146EFC0E156E27C016F0400E7CEC99
:1018380032F0030E0101006F256A6BD02350000AB5
:10184800D8B4BAD7010AD8B4C7D7030AD8B4D3D7FB
:10185800010AD8B4E1D75DD0020E126E1E0E136EC7
:10186800570E146EFC0E156E29C016F0160E7CEC81
:1018780032F00101016BA3D0020E126E200E136E1E
:10188800370E146EFC0E156E29C016F0160E7CEC81
:1018980032F0010E3BD0020E126E200E136E170EA0
:1018A800146EFC0E156E29C016F0160E7CEC32F084
:1018B800020E2CD0020E126E200E136EF70E146E4E
:1018C800FB0E156E29C016F0160E7CEC32F0030ED6
:1018D8001DD0020E126E200E136ED70E146EFB0E64
:1018E800156E29C016F0160E7CEC32F0040E0ED0E0
:1018F800020E126E200E136EB70E146EFB0E156ECE
:1019080029C016F0160E7CEC32F0050E0101016FAD
:1019180056D02550000AD8B49FD7010AD8B4ACD7FE
:10192800030AD8B4B8D7010AD8B4C4D7070AD8B4B8
:10193800D0D7010AD8B4DCD742D0050E126E1E0EDD
:10194800136E970E146EFC0E156E28C016F0400E1E
:101958007CEC32F00101026B9DD0050E126E1E0E5A
:10196800136E770E146EFC0E156E28C016F0400E1E
:101978007CEC32F0010E0ED0050E126E1E0E136EA8
:10198800B70E146EFC0E156E28C016F0400E7CECD7
:1019980032F0020E0101026F7DD0050E126E1E0E8E
:1019A800136E570E146EFC0E156E28C016F0400EFE
:1019B8007CEC32F0030E0101026F266A6BD02450D2
:1019C800000AD8B4BAD7010AD8B4C7D7030AD8B41A
:1019D800D3D7010AD8B4E1D75DD0050E126E1E0E1A
:1019E800136E570E146EFC0E156E2AC016F0160EE6
:1019F8007CEC32F00101036B60D0050E126E200EF4
:101A0800136E370E146EFC0E156E2AC016F0160EE5
:101A18007CEC32F0010E3BD0050E126E200E136ED8
:101A2800170E146EFC0E156E2AC016F0160E7CECFE
:101A380032F0020E2CD0050E126E200E136EF70E29
:101A4800146EFB0E156E2AC016F0160E7CEC32F0E2
:101A5800030E1DD0050E126E200E136ED70E146ED7
:101A6800FB0E156E2AC016F0160E7CEC32F0040E32
:101A78000ED0050E126E200E136EB70E146EFB0EEE
:101A8800156E2AC016F0160E7CEC32F0050E010118
:101A9800036F13D02650000AD8B49FD7010AD8B4D0
:101AA800ACD7030AD8B4B8D7010AD8B4C4D7070A40
:101AB800D8B4D0D7010AD8B4DCD70001DEB503D03A
:101AC8004D50D8A41BD0DE9500C10DF0040EDFECFC
:101AD80035F001C10DF0060EDFEC35F002C10DF056
:101AE800050EDFEC35F003C10DF0070EDFEC35F025
:101AF8004D6A0101666B010E07EC35F04D04D8A460
:101B080012009CD53C6E3CAEF3D03C6C3C50800A35
:101B1800120FD8A088D0000E166E0A0E156E000E91
:101B2800106E640E0F6E3C500D6E0E6A0DBE0E06E2
:101B380010EC32F00DC013F00EC014F0BEEC2FF014
:101B4800090E13261350040D760EF324F66EC80EF4
:101B5800F420F76E0900F5CF1FF00900F5CF20F04B
:101B68000900F5CF21F00A00F5CF22F0000E166E1D
:101B7800640E156E3C50136E146A13BE1406BEEC48
:101B88002FF0120E13261350040D760EF324F66E62
:101B9800C80EF420F76E0900F5CF1BF00900F5CF49
:101BA8001CF00900F5CF1DF00A00F5CF1EF0E8EC97
:101BB80012F01BC038F01CC039F01DC03AF01EC02E
:101BC8003BF038C01BF039C01CF03AC01DF03BC0D8
:101BD8001EF0000E106E0A0E0F6E3C500D6E0E6A4F
:101BE8000DBE0E0610EC32F00D50040D760EF324E7
:101BF800F66EC80EF420F76E0900F5CF1FF0090045
:101C0800F5CF20F00900F5CF21F00A00F5CF22F03A
:101C1800E8EC12F01BC034F01CC035F01DC036F0E3
:101C28001EC037F012003C50800A750FD8A04BD068
:101C3800000E166E0A0E156E3C50136E146A13BE13
:101C48001406BEEC2FF0090E13261350040D760E61
:101C5800F324F66EC80EF420F76E0900F5CF1BF0DA
:101C68000900F5CF1CF00900F5CF1DF00A00F5CFEB
:101C78001EF0000E106E0A0E0F6E3C500D6E0E6AAE
:101C88000DBE0E0610EC32F00D50040D760EF32446
:101C9800F66EC80EF420F76E0900F5CF1FF00900A4
:101CA800F5CF20F00900F5CF21F00A00F5CF22F09A
:101CB800E8EC12F01BC034F01CC035F01DC036F043
:101CC8001EC037F012003C50040D760EF324F66E59
:101CD800C80EF420F76E0900F5CF34F00900F5CFEF
:101CE80035F00900F5CF36F00A00F5CF37F01200CD
:101CF8003C50800A120FD8A088D0000E166E0A0E2B
:101D0800156E000E106E640E0F6E3C500D6E0E6A4E
:101D18000DBE0E0610EC32F00DC013F00EC014F01C
:101D2800BEEC2FF0090E13261350040D420EF324B7
:101D3800F66EC80EF420F76E0900F5CF1FF0090003
:101D4800F5CF20F00900F5CF21F00A00F5CF22F0F9
:101D5800000E166E640E156E3C50136E146A13BE98
:101D68001406BEEC2FF0120E13261350040D420E6B
:101D7800F324F66EC80EF420F76E0900F5CF1BF0B9
:101D88000900F5CF1CF00900F5CF1DF00A00F5CFCA
:101D98001EF0E8EC12F01BC038F01CC039F01DC072
:101DA8003AF01EC03BF038C01BF039C01CF03AC0F6
:101DB8001DF03BC01EF0000E106E0A0E0F6E3C5058
:101DC8000D6E0E6A0DBE0E0610EC32F00D50040DAD
:101DD800420EF324F66EC80EF420F76E0900F5CF14
:101DE8001FF00900F5CF20F00900F5CF21F00A0017
:101DF800F5CF22F0E8EC12F01BC034F01CC035F02F
:101E08001DC036F01EC037F012003C50800A750F16
:101E1800D8A04BD0000E166E0A0E156E3C50136EED
:101E2800146A13BE1406BEEC2FF0090E13261350C5
:101E3800040D420EF324F66EC80EF420F76E090066
:101E4800F5CF1BF00900F5CF1CF00900F5CF1DF008
:101E58000A00F5CF1EF0000E106E0A0E0F6E3C50F1
:101E68000D6E0E6A0DBE0E0610EC32F00D50040D0C
:101E7800420EF324F66EC80EF420F76E0900F5CF73
:101E88001FF00900F5CF20F00900F5CF21F00A0076
:101E9800F5CF22F0E8EC12F01BC034F01CC035F08E
:101EA8001DC036F01EC037F012003C50040D420E23
:101EB800F324F66EC80EF420F76E0900F5CF34F05F
:101EC8000900F5CF35F00900F5CF36F00A00F5CF57
:101ED80037F01200030E0001D719D8B40AD049C050
:101EE800A2F0050EA36FD890A233A32FFCD7A2A10E
:101EF80030D0070E106E000EBDEC36F0CE0E216EFF
:101F0800FD0E226E000E236E18EC33F001018205DF
:101F1800D8A40DD0030E126E300E136EE60E146E9A
:101F2800F90E156E000E166E280E7CEC32F00101CB
:101F38008505D8A460D0030E126E2A0E136E210EEA
:101F4800146EFB0E156E000E166E280E7CEC32F029
:101F580052D0D105D8A40ED0070E106E000EBDECDD
:101F680036F0CD0E216EFF0E226E51C023F018EC14
:101F780033F00DD0070E106E000EBDEC36F0C30E18
:101F8800216EFF0E226E51C023F018EC33F04BC0C7
:101F9800A2F00001D890A233D890A233A2A110D009
:101FA8005150D8A40DD0070E106E000EBDEC36F0BF
:101FB800A80E216EFF0E226E010E236E18EC33F070
:101FC8004BC0A2F0050E0001A36FD890A233A32F37
:101FD800FCD7A2A110D05150D8A40DD0070E106E76
:101FE800000EBDEC36F0D70E216EFF0E226E010EEC
:101FF800236E18EC33F0030E0001D819D8B406D0BC
:10200800A26B49AE01D0A22BA2A130D0070E106E50
:10201800180EBDEC36F0CE0E216EFD0E226E000EAF
:10202800236E18EC33F001018105D8A40DD0030EFE
:10203800126E300E136EB60E146EF90E156E000E7B
:10204800166E280E7CEC32F001018405D8A436D037
:10205800030E126E2A0E136EF70E146EFA0E156E1C
:10206800000E166E280E7CEC32F028D0070E106E8B
:10207800180EBDEC36F0A20E216EFF0E226E50C077
:1020880023F018EC33F04BC0A2F00001D890A23333
:10209800D890A233D890A233A2A110D05050D8A47F
:1020A8000DD0070E106E180EBDEC36F0AE0E216E78
:1020B800FF0E226E010E236E18EC33F0030E0001A2
:1020C800D919D8B40AD049C0A2F0D890A233D89070
:1020D800A233D890A233A2A122D001018A05D8A4A4
:1020E8000DD0030E126E300E136E860E146EF90E9E
:1020F800156E000E166E280E7CEC32F00101830579
:10210800D8A40DD0030E126E2A0E136ECD0E146EC7
:10211800FA0E156E000E166E280E7CEC32F00001D9
:10212800D605D8B448D048C0A2F0060EA36FD89000
:10213800A233A32FFCD7A2A10ED0070E106E370E24
:10214800BDEC36F0CE0E216EFD0E226E000E236E13
:1021580018EC33F00DD0070E106E370EBDEC36F0CC
:10216800C80E216EFF0E226EF7C023F018EC33F074
:102178000001A26B48AE01D0A22BA2A10ED0070E7F
:10218800106E500EBDEC36F0CE0E216EFD0E226E96
:10219800000E236E18EC33F033D0070E106E500E7D
:1021A800BDEC36F0D20E216EFF0E226E9FC123F0D9
:1021B80018EC33F025D048C0A2F0060EA36FD890D3
:1021C800A233A32FFCD7A2A10ED0070E106E370E94
:1021D800BDEC36F0CA0E216EFD0E226E000E236E87
:1021E80018EC33F00DD0070E106E370EBDEC36F03C
:1021F8007D0E216EFF0E226EF7C023F018EC33F02F
:102208000001DB51D8A40ED0000E106E5A0EBDECA2
:1022180036F0CF0E216EFD0E226E000E236E18ECE6
:1022280033F01200000E106E5F0EBDEC36F0150E86
:102238000001DB19D8B416D0A80E746F010E756FA3
:102248005D0E766FFF0E776FDBC078F0796BE9EC87
:1022580001F0A80E216E010E226E000E236E18ECFE
:1022680033F008D0FC0E216EFF0E226E000E236E96
:1022780018EC33F055EC35F012004E04D8A41200D7
:10228800366ABEC126F0BFC127F0C0C128F0BBC165
:1022980031F0BCC132F0BDC133F0000E2D6E000E1E
:1022A8002E6E000E2F6ED7C02DF0D8C02EF0D9C0DC
:1022B8002FF0D1C030F045EC36F0910E126EE50EDD
:1022C800136EC2EC33F07CD10001E7A53ED0E79550
:1022D8003650D8A407D0D72B020ED76503D0D76BBA
:1022E800010E301A3604D8A40FD0010ED8250D6E71
:1022F8000E6A000E0E22000E106E030E0F6E10EC0A
:1023080032F00D500001D86F020E3618D8A41DD037
:10231800020ED619D8A40FD0010ED9250D6E0E6A5B
:10232800000E0E22000E106E030E0F6E10EC32F02F
:102338000D50000109D0020E3618D8A406D0030E9D
:10234800D919D8A402D0020ED96FE4A542D0E495D9
:102358003650D8A408D0D707D729D8A404D0030E5C
:10236800D76F010E301A3604D8A410D0D851D8B47B
:1023780007D0FF0ED825296E2A6AFF0E2A2204D01C
:10238800000E2A6E030E296E29C0D8F0020E3618E8
:10239800D8A41FD0020ED619D8A411D0D951D8B4B8
:1023A80007D0FF0ED9252B6E2C6AFF0E2C2204D0E5
:1023B800000E2C6E030E2B6E2BC0D9F00AD0020E25
:1023C8003618D8A406D0020ED919D8A402D0030E04
:1023D800D96FE1A55DD0E195010E36240D6E0E6A28
:1023E800000E0E22000E106E030E0F6E10EC32F06F
:1023F8000D50366E000E356E000E346E3450260FBA
:10240800D96EDA6A3650246E256A3450241806E1EB
:1024180035502518D8A402D0010E01D0000EDF6E69
:102428003450310FD96EDA6A3650246E256A34502A
:10243800241806E135502518D8A402D0010E01D081
:10244800000EDF6E344A352A35BED8D7355004E140
:10245800030E345CD8A0D2D73650D8A406D0910E3B
:10246800126EE50E136EC2EC33F03604D8A406D013
:10247800910E126EE10E136EC2EC33F0020E361896
:10248800D8A406D0910E126EDD0E136EC2EC33F096
:10249800020E1F6E31C020F00001D751AAEC2EF0B9
:1024A800040E1F6E32C020F00001D851AAEC2EF0A5
:1024B800060E1F6E33C020F00001D951AAEC2EF091
:1024C8003004D8A418D0020E106E3C0EBDEC36F0C5
:1024D800900E216EFF0E226E31C023F018EC33F0FF
:1024E800010E0001D16FFB89FAC00DF0FBC00EF0A0
:1024F800D1EC34F011D0020E106E3C0EBDEC36F06B
:102508008A0E216EFF0E226E31C023F018EC33F0D4
:102518000001D16BFB99E8D7040E106E3C0EBDECA0
:1025280036F0960E216EFF0E226E32C023F018ECA4
:1025380033F0060E106E3C0EBDEC36F09C0E216E8C
:10254800FF0E226E33C023F018EC33F00001DEB525
:1025580003D04E50D8A434D0DE952D50D719D8B416
:102568000AD0D7C00DF0020EDFEC35F0020E14ECE5
:1025780037F00001D76FD8512E18D8B40AD0D8C078
:102588000DF0030EDFEC35F0030E14EC37F000010C
:10259800D86FD9512F18D8B40AD0D9C00DF0080E69
:1025A800DFEC35F0080E14EC37F00001D96FD1C01C
:1025B8000DF0090EDFEC35F04E6A010E07EC35F030
:1025C8004E04D8A4120080D61E50800B276E1E50D1
:1025D8001E24296E1DBE29802950D8B40DD0292863
:1025E800D8A408D0000E1B6E000E1C6E000E1D6EC7
:1025F800000E1E6E1D8E08D0000E1B6E000E1C6E87
:10260800000E1D6E000E1E6E2250800B271A2250DF
:102618002224286E21BE28802850D8B40DD028281E
:10262800D8A408D0000E1F6E000E206E000E216E7A
:10263800000E226E218E08D0000E1F6E000E206E36
:10264800000E216E000E226E2850D8B403D02950F7
:10265800D8A409D0000E1B6E000E1C6E000E1D6E55
:10266800000E1E6E120021501B02F3CF32F0F4CF81
:1026780033F032502A6E2B6A2C6A2D6A33502E6E34
:102688002F6A306A316A20501C02F3CF32F0F4CF3F
:1026980033F032502A26000E2B222C222D223350C2
:1026A8002E26000E2F22302231221F501D02F3CF7A
:1026B80032F0F4CF33F032502A26000E2B222C228F
:1026C8002D2233502E26000E2F22302231222CC0EC
:1026D8002DF02BC02CF02AC02BF02A6A1F501C02A8
:1026E800F3CF32F0F4CF33F032502A2633502B2276
:1026F800000E2C22000E2D2220501B02F3CF32F0A8
:10270800F4CF33F032502A2633502B22000E2C22DD
:10271800000E2D222CC02DF02BC02CF02AC02BF03F
:102728002A6A1F501B02F3CF32F0F4CF33F0325035
:102738002A2633502B22000E2C22000E2D22215047
:102748001C02F3CF32F0F4CF33F032502E26335040
:102758002F22000E3022000E312220501D02F3CF0E
:1027680032F0F4CF33F032502E2633502F22000EA1
:102778003022000E312221501D02F3CF32F0F4CF67
:1027880033F03250236E3350246E256A266A25C0F2
:1027980026F024C025F023C024F0236A23502E26D7
:1027A80024502F2225503022265031222D502E26FB
:1027B800000E2F22302231222CC02DF02BC02CF0FD
:1027C8002AC02BF02A6A285029C023F0246A23261D
:1027D800000E2422820E2324326EFF0E2420336E34
:1027E8000FD0D8902E362F36303631362DBE2E806B
:1027F800D8902A362B362C362D363206D8A03306FA
:1028080030AEEFD7286A2DAE17D0FF0E2A14236EEC
:10281800FF0E2B14246EFF0E2C14256E7F0E2D1424
:10282800266E2350241025102610D8B403D0010E8C
:10283800286E02D02EB0FBD72850D8B41FD0010E76
:102848002E26000E2F223022312231A017D02EC082
:1028580023F02FC024F030C025F031C026F02634F4
:10286800263225322432233223C02EF024C02FF002
:1028780025C030F026C031F0324A332A33BE0DD09D
:10288800335003E13228D8A008D0000E2E6E000E77
:102898002F6E800E306E7F0E1FD033BE05D03350A2
:1028A8000DE13204D8B00AD0000E2E6E000E2F6E45
:1028B800000E306E000E316E276A0FD032C029F03C
:1028C800FF0E2E16FF0E2F167F0E3016000E311635
:1028D80029B0308ED8902930316E275031122EC051
:1028E8001BF02FC01CF030C01DF031C01EF01200CC
:1028F8000001C26BBE6BC06BB8C1A4F0B9C1A5F032
:10290800BAC1A6F08282D10EC36F010EC46F030E46
:10291800106E0A0EBDEC36F0E80E216EFF0E226E28
:10292800000E236E18EC33F0040E106E0A0EBDEC88
:1029380036F0EC0E216EFF0E226E000E236E18ECA0
:1029480033F0050E106E0A0EBDEC36F0F00E216E57
:10295800FF0E226E000E236E18EC33F0060E106E7A
:102968000A0EBDEC36F0E40E216EFF0E226E000E4C
:10297800236E18EC33F042D1BF6BBF51A40FD96E50
:10298800DA6ADF5098EC34F00001BF51020DF350C1
:10299800B10FD96EDA6A0DC0DEFF0EC0DDFFBF2BA6
:1029A800020EBF65EAD7A70E746F756B770E766F48
:1029B800FD0E776FB1C078F0B2C079F0B3C07AF08D
:1029C800B4C07BF0B5C07CF0B6C07DF0E9EC01F096
:1029D800000E106E000EBDEC36F0A70E216E226AB6
:1029E800000E236E18EC33F00001C16B3AD0C3C05F
:1029F800D9FFC4C0DAFFDECFBAF0DDCFBBF020EEDE
:102A080002F026D020EE04F0C351D926C451DA22B0
:102A1800DECFBAF0DDCFBBF020EE06F019D020EE05
:102A280008F0C351D926C451DA22DECFBAF0DDCF7F
:102A3800BBF020EE0AF00CD020EE0CF0C351D926E2
:102A4800C451DA22DECFBAF0DDCFBBF020EE0EF0B3
:102A5800C351D926C451DA22DECFBCF0DDCFBDF098
:102A68000DD0C151000AD8B4C2D7010AD8B4CAD708
:102A7800030AD8B4D4D7010AD8B4DED7C151030F9A
:102A8800B96FC251C119D8A422D0BE51D8B41FD031
:102A9800C051D8B40ED0A70E746F756B2C0E766F1C
:102AA800FF0E776FBCC078F0BDC079F0E9EC01F09B
:102AB8001FD0A70E746F756B2C0E766FFF0E776F95
:102AC800BAC078F0BBC079F0E9EC01F011D0A70EDC
:102AD800746F756B370E766FFE0E776FBAC078F02D
:102AE800BBC079F0BCC07AF0BDC07BF0E9EC01F066
:102AF800B9C010F0280EBDEC36F0A70E216E226A80
:102B0800000E236E18EC33F0B9C010F01E0EBDECA9
:102B180036F00001C251C119D8A403D0BE51D8B4AF
:102B280004D0000EB86F200E03D0000EB86F3E0E12
:102B3800B76F000E146EB7515CEC2DF00001C12B7D
:102B4800030EC1658ED7BE51D8A414D0E7A504D012
:102B5800E795C251D8A4C207E4A505D0E495030EB1
:102B6800C26101D0C22BE1A53DD0E195010EBE6F37
:102B7800C06B38D0E7A515D0E795C051D8A409D0C7
:102B8800C3C00DF0C4C00EF0C2C00FF078EC2AF03C
:102B980008D0C3C00DF0C4C00EF0C2C00FF0D9EC0D
:102BA80031F0E4A515D0E495C051D8A409D0C3C02C
:102BB8000DF0C4C00EF0C2C00FF001EC2DF008D02B
:102BC800C3C00DF0C4C00EF0C2C00FF0FBEC29F07A
:102BD800E1A508D0E195C051D8A403D0010EC06F7B
:102BE80001D0BE6B030E0001A36F080EA26F770E13
:102BF800E82EFED7A22FFCD7A32FFAD70001DEA517
:102C0800BBD6DE9531EC31F045EC36F07CEC2FF09C
:102C18001200AD6B0101956B45EC36F08282000124
:102C2800FB95FAC00DF0FBC00EF0D1EC34F00001BA
:102C3800AC6BACC010F0000EBDEC36F0CB0E216EC4
:102C4800FD0E226E000E236E18EC33F00001AC2B43
:102C5800040EAC65EED75CD10001AE6B330EAE2529
:102C6800F66EF76AFD0EF7220800F55098EC34F07E
:102C78000DC0A8F00EC0A9F0330E1F6E330E206EE3
:102C8800530E216E400E226EA8C00DF0A9C00EF0A2
:102C9800000E0EBEFF0E0F6E106E010E80EC22F0BD
:102CA8000DC01BF00EC01CF00FC01DF010C01EF0B0
:102CB800E8EC12F01BC034F01CC035F01DC036F033
:102CC8001EC037F0000E386EC00E396E7F0E3A6E99
:102CD800440E3B6E9BEC1AF034C0A4F035C0A5F04E
:102CE80036C0A6F037C0A7F0AD51AE19D8B404D09D
:102CF800000EAB6F200E03D0000EAB6F3E0EAA6F16
:102D0800A80E746F010E756F590E766FFE0E776FF1
:102D1800AAC078F0ABC079F0AE51020D610EF32471
:102D2800F66EC90EF420F76E0900F5CF7AF00A00A6
:102D3800F5CF7BF0A4C07CF0A5C07DF0A6C07EF0E6
:102D4800A7C07FF0E9EC01F0AEC010F0000EBDECBA
:102D580036F0A80E216E010E226E000E236E18ECBE
:102D680033F00001AE2B040EAE6578D7000E106E5E
:102D78004B0EBDEC36F0A80E0001746F010E756F96
:102D8800580E766FFF0E776F81A003D0A26BA22B2F
:102D980002D00001A26BA251786F796BE9EC01F0C7
:102DA800A80E216E010E226E000E236E18EC33F071
:102DB800010E106E4B0EBDEC36F0A80E0001746FBC
:102DC800010E756F600E766FFF0E776F80A403D0CB
:102DD800A26BA22B02D00001A26BA251786F796B73
:102DE800E9EC01F0A80E216E010E226E000E236E92
:102DF80018EC33F0030E106E4B0EBDEC36F0A80E37
:102E08000001746F010E756F470E766FFF0E776FB6
:102E180081A403D0A26BA22B02D00001A26BA25105
:102E2800786F796BE9EC01F0A80E216E010E226E25
:102E3800000E236E18EC33F0050E106E000EBDEC7C
:102E480036F0A80E0001746F010E756F6F0E766F65
:102E5800FF0E776F43EC37F00001A26FA251786F35
:102E6800796BE9EC01F0A80E216E010E226E000EBE
:102E7800236E18EC33F0060E106E000EBDEC36F023
:102E8800A80E0001746F010E756F760E766FFF0E37
:102E9800776F3DEC37F00001A26FA251786F796B24
:102EA800E9EC01F0A80E216E010E226E000E236ED1
:102EB80018EC33F00001E7A504D0E795AD51D8A48C
:102EC800AD07E4A505D0E495040EAD6101D0AD2BA6
:102ED800E1A505D0E19545EC36F064EC37F000014A
:102EE800DEA50AD0DE95010E0101956F010E986FDF
:102EF80045EC36F07CEC2FF0050E0001A36F0F0EA9
:102F0800A26FF10EE82EFED7A22FFCD7A32FFAD777
:102F180001019551D8B4A0D60001FB85FAC00DF087
:102F2800FBC00EF0D1EC34F0120000016351800BAD
:102F3800686F635163256A6F62BF6A816A51D8B44A
:102F48000ED06A29D8A408D0000E606F000E616FF9
:102F5800000E626F000E636F628F636B08D0000E05
:102F6800606F000E616F000E626F000E636F675135
:102F7800800B696F68516919D8A4688D67516725F6
:102F8800696F66BF69816951D8B40ED06929D8A420
:102F980008D0000E646F000E656F000E666F000E9D
:102FA800676F668F676B08D0000E646F000E656FE1
:102FB800000E666F000E676F6A51695DD8B022D047
:102FC80068AD02D0800E681B6AC06BF069C06AF0F9
:102FD8006BC069F060C06BF064C060F06BC064F0F7
:102FE80061C06BF065C061F06BC065F062C06BF0EA
:102FF80066C062F06BC066F063C06BF067C063F0D8
:103008006BC067F06B6B6A5169C043F0446A435EFA
:10301800000E445A44BE2CD0445004E11A0E435CBE
:10302800D8A026D06051611162116311D8B402D0C2
:10303800010E01D0000E6B6F000E606F000E616F05
:10304800000E626F000E636F69C06AF015D06BA145
:1030580005D0D8906B3101096B6F02D0D8906B33D3
:1030680060B16B8F633563336233613360336A2BCE
:1030780069516A5DD8A0EBD768BD28D06A51D8A439
:1030880009D0000E606F000E616F000E626F000EB7
:10309800636F120064516027655161236651622392
:1030A8006751632363A171D06BA105D0D8906B31B0
:1030B80001096B6F02D0D8906B3360B16B8F6335A9
:1030C80063336233613360336A2B5FD06451605D70
:1030D80065516159665162596351800A436E67515F
:1030E800800A4358D8B025D06051645D436E615161
:1030F8006559446E62516659456E63516759466E0B
:10310800FF0E4324606FFF0E4420616FFF0E4520C1
:10311800626FFF0E4620636F800E681B6B6D6B51EC
:10312800D8A40FD0010E6027000E61236223632309
:1031380008D06451605F6551615B6651625B67519D
:10314800635B6051611162116311D8A41CD06B518B
:10315800D8A419D0000E606F000E616F000E626F68
:10316800000E636F1200D89060376137623763379B
:103178006BBF60816BA102D0D88001D0D8906B372B
:103188006A51D8A46A0762AFEED7696B6BAF0BD0F0
:103198006BC043F07F0E4316D8B403D0010E696F9D
:1031A80002D060B1FBD76951D8B420D0010E602796
:1031B800000E61236223632363A118D060C043F02B
:1031C80061C044F062C045F063C046F04634463200
:1031D80045324432433243C060F044C061F045C0D8
:1031E80062F046C063F06A29D8A46A2B6A29D8B469
:1031F80003D06A51D8A40BD0000E606F000E616F27
:10320800000E626F000E636F6A51D8B4686B6AA1D2
:1032180002D0628F01D0629FD8906A31636F68BF15
:10322800638F60C060F061C061F062C062F063C02B
:1032380063F01200DDC0C2F0D6C0C3F0CC6B010150
:10324800966B45EC36F0000E106E140EBDEC36F0A1
:103258000F0E216EFE0E226E010E236E18EC33F057
:10326800010E126E090E136E210E146EFD0E156EF0
:10327800000E166E730E7CEC32F0060E126E090EFE
:10328800136E180E146EFD0E156E000E166E730E6C
:103298007CEC32F0060E126E090E136E2A0E146EB6
:1032A800FD0E156E000E166E000E7CEC32F03AD153
:1032B800020E106E000EBDEC36F032D0A40E746F04
:1032C800756B380E766FFD0E776FE9EC01F039D02B
:1032D800A40E746F756B8C0E766FFD0E776FE9EC2C
:1032E80001F02FD0A40E746F756BA00E766FFD0ED3
:1032F800776FE9EC01F025D0A40E746F756B4D0E55
:10330800766FFD0E776FE9EC01F01BD0A40E746F99
:10331800756B620E766FFD0E776FE9EC01F011D0D8
:103328000001DD51000AD8B4C9D7010AD8B4D0D7F2
:10333800030AD8B4D7D7010AD8B4DED7070AD8B455
:10334800E5D7CC51D8B427D0000EC96F000EC86F8E
:1033580018D0C851A40FD96EDA6A5B0EDE18D8B43B
:1033680008D0C851A40FD96EDA6A5D0EDE18D8A449
:1033780006D0C851A40FD96EDA6A200EDF6EC84B8A
:10338800C92BA40E0D6E7DEC36F00D50C85D0E50A5
:10339800C959D8A0DED7A40E216E226A000E236E6A
:1033A80018EC33F0040E106E000EBDEC36F0A40ECF
:1033B8000001746F756BB40E766FFD0E776FD6C013
:1033C80078F0796BE9EC01F0CC05D8B427D0000E81
:1033D800CB6F000ECA6F18D0CA51A40FD96EDA6A23
:1033E8005B0EDE18D8B408D0CA51A40FD96EDA6AB9
:1033F8005D0EDE18D8A406D0CA51A40FD96EDA6AB9
:10340800200EDF6ECA4BCB2BA40E0D6E7DEC36F072
:103418000D50CA5D0E50CB59D8A0DED7A40E216E30
:10342800226A000E236E18EC33F00001E7A51AD0CB
:10343800E795CC51D8A406D0DD2B040EDD6512D05B
:10344800DD6B10D0CC05D8A40DD0D605D8B404D0E7
:10345800000EC56F010E03D0000EC56F020EC46FBB
:10346800C4C0D6F0E4A51CD0E495CC51D8A408D0AB
:10347800DD51D8A403D0040EDD6F12D0DD0710D0C3
:10348800CC05D8A40DD0D605D8B404D0000EC76F8B
:10349800010E03D0000EC76F020EC66FC6C0D6F06D
:1034A800E1A51FD0E195CC51D8A402D0010E01D0DE
:1034B800000ECC6FC351D619D8B413D0D6C00DF0B6
:1034C800010EDFEC35F0FF000B0E0001A36F260E96
:1034D800A26F5D0EE82EFED7A22FFCD7A32FFAD736
:1034E80000D00001DEA511D0DE95C251DD19D8B497
:1034F80009D0DDC00DF0140EDFEC35F00001DD5110
:10350800F2EC2EF0010E0101966F040E0001A36F7C
:103518000C0EA26F330EE82EFED7A22FFCD7A32FD6
:10352800FAD700D001019605D8B41200C1D6375099
:10353800800B0001646F375037246B6F36BE6B8188
:103548006B51D8B40ED06B29D8A408D0000E346EB5
:10355800000E356E000E366E000E376E368E376AE8
:1035680008D0000E346E000E356E000E366E000E5A
:10357800376E3B50800B641B3B503B246C6F3ABE4C
:103588006C816C51D8B40ED06C29D8A408D0000E28
:10359800386E000E396E000E3A6E000E3B6E3A8E93
:1035A8003B6A08D0000E386E000E396E000E3A6E77
:1035B800000E3B6E385039103A103B10D8A417D083
:1035C800000E346E000E356E000E366E000E376E2D
:1035D800800E36127F0E37126451371234C034F021
:1035E80035C035F036C036F037C037F012006B51B1
:1035F800D8A409D0000E346E000E356E000E366E5B
:10360800000E376E12006C516BC03CF03D6A3C5E98
:10361800000E3D5A7F0E3C24656F000E3D20666FFC
:1036280034C060F035C061F036C062F037C063F076
:10363800000E346E000E356E000E366E000E376EBC
:10364800000E676F000E686F000E696F000E6A6FDC
:103658006C6B28D06C51D8B411D0D89060376137D2
:1036680062376337D89034363536363637366ABFE0
:103678003480D8906737683769376A373850605D63
:10368800395061593A5062593B506359D8A009D012
:103698006A8D3850605F3950615B3A50625B3B50CD
:1036A800635B6C2B190E6C65D5D760516111621183
:1036B8006311D8B411D067810FD0D890343635361D
:1036C800363637366ABF3480D890673768376937F7
:1036D8006A376507D8A0660736AEEFD76C6B6AAF56
:1036E80017D0FF0E67153C6EFF0E68153D6EFF0E76
:1036F80069153E6E7F0E6A153F6E3C503D103E10B8
:103708003F10D8B403D0010E6C6F02D034B0FBD791
:103718006C51D8B41FD0010E3426000E3522362243
:10372800372237A017D034C03CF035C03DF036C042
:103738003EF037C03FF03F343F323E323D323C32FC
:103748003CC034F03DC035F03EC036F03FC037F0E5
:10375800654B662B66BF10D0665103E16529D8A07A
:103768000BD0000E666F6569000E346E000E356E64
:10377800000E366E000E376E66BF05D0665110E13A
:103788006505D8B00DD0000E666F000E656F000E8F
:10379800346E000E356E000E366E000E376E646B9A
:1037A80065C06BF06BA102D0368E01D0369ED890E2
:1037B8006B31376E11D7DBC02EF2DCC030F202015C
:1037C8002F6B316B2C6B2D6B0101976B22EE32F056
:1037D80012EE00F02B0EDBCFE3FFE806FCE2010E51
:1037E800106E000EBDEC36F0F40E216EFF0E226E48
:1037F800000E236E18EC33F08282060E106E000E57
:10380800BDEC36F0FA0E216EFF0E226E000E236E0E
:1038180018EC33F0010E126E090E136E210E146EA1
:10382800FD0E156E000E166E730E7CEC32F0060E51
:10383800126E090E136E180E146EFD0E156E000E24
:10384800166E730E7CEC32F0000E126E460E136E7E
:10385800230E146EF80E156E010E166E1E0E7CECFD
:1038680032F0020E126E220E136E950E146EFB0EBF
:10387800156E000E166E4B0E7CEC32F0D6D002019F
:103888003151D8A404D0010E2C6F2D6B06D0310510
:10389800D8A403D02C6B010E2D6F020E106E140EDF
:1038A800BDEC36F0A80E0001746F010E756FF70EAF
:1038B800766FFF0E776FDB51020D000EF324D96E81
:1038C800020EF420DA6EDECF78F0DDCF79F0E9EC85
:1038D80001F0A80E216E010E226E2CC223F018EC06
:1038E80033F0150E0001DB19D8A422D0010E020115
:1038F8002F6F040E106E140EBDEC36F0A80E0001EA
:10390800746F010E756F2A0E766FFE0E776F30C2D8
:1039180078F0796BE9EC01F0A80E216E010E226EA9
:103928002DC223F018EC33F0010E0201316F10D0D4
:103938000201316B2F6B040E106E140EBDEC36F0C5
:10394800C40E216EFD0E226E000E236E18EC33F0AD
:103958000001E7A518D0E79502013151D8A406D097
:103968000001DB2B150EDB6501D0DB6B0201310595
:10397800D8A409D02F51D8B406D0302B150E3065F5
:1039880002D0010E306F0001E4A51CD0E4950201BD
:103998003151D8A40AD00001DB07DB29D8B403D001
:1039A800DB51D8A402D0150EDB6F02013105D8A473
:1039B80009D02F51D8B406D030073051D8A402D03E
:1039C800140E306F0001DEA50ED0DE952EC2DBF09E
:1039D80002013151D8A403D0010E316F26D0316BCA
:1039E8000001DB6B22D0E1A520D0E19502012E5128
:1039F8000001DB19D8A406D0020130510001DC19FE
:103A0800D8B40CD0DBC00DF0130EDFEC35F030C2AB
:103A1800DCF030C20DF0190EDFEC35F0010E0101BB
:103A2800976F45EC36F07CEC2FF001019705D8B480
:103A3800120025D7426E6D0E4264A0D0000E1F6E94
:103A4800000E206E000E216E3F0E226E640E116E67
:103A58004250B5EC34F0386E396AD8903836393679
:103A6800D89038363936480E3826000E3922760E68
:103A78003824F66EC80E3920F76E0900F5CF1BF012
:103A88000900F5CF1CF00900F5CF1DF00A00F5CFAD
:103A98001EF0E8EC12F01BC03EF01CC03FF01DC049
:103AA80040F01EC041F00A0E116E640E0D6E4250B9
:103AB8001DEC36F0B5EC34F0386E396AD8903836EB
:103AC8003936D89038363936240E3826000E392241
:103AD800760E3824F66EC80E3920F76E0900F5CF39
:103AE8001FF00900F5CF20F00900F5CF21F00A00FA
:103AF800F5CF22F03EC01BF03FC01CF040C01DF0C7
:103B080041C01EF0E8EC12F01BC03AF01CC03BF0BC
:103B18001DC03CF01EC03DF03AC01BF03BC01CF07D
:103B28003CC01DF03DC01EF00A0E0D6E42501DEC4B
:103B380036F0386E396AD89038363936D8903836F3
:103B48003936760E3824F66EC80E3920F76E09001D
:103B5800F5CF1FF00900F5CF20F00900F5CF21F0CF
:103B68000A00F5CF22F0E8EC12F01BC034F01CC0BC
:103B780035F01DC036F01EC037F012000A0E426440
:103B880067D0000E1F6E000E206E000E216E3F0ED5
:103B9800226E0A0E116E4250B5EC34F0386E396A56
:103BA800D89038363936D89038363936240E3826F3
:103BB800000E3922760E3824F66EC80E3920F76EBC
:103BC8000900F5CF1BF00900F5CF1CF00900F5CF6F
:103BD8001DF00A00F5CF1EF0E8EC12F01BC03EF015
:103BE8001CC03FF01DC040F01EC041F03EC01BF09D
:103BF8003FC01CF040C01DF041C01EF00A0E0D6E03
:103C080042501DEC36F0386E396AD890383639365D
:103C1800D89038363936760E3824F66EC80E3920E4
:103C2800F76E0900F5CF1FF00900F5CF20F0090065
:103C3800F5CF21F00A00F5CF22F0E8EC12F01BC016
:103C480034F01CC035F01DC036F01EC037F012002D
:103C58004250040D760EF324F66EC80EF420F76E6B
:103C68000900F5CF1BF00900F5CF1CF00900F5CFCE
:103C78001DF00A00F5CF1EF0000E1F6E000E206E1C
:103C8800000E216E3F0E226EE8EC12F01BC034F0DD
:103C98001CC035F01DC036F01EC037F0120021EEF2
:103CA800E1F0040EDE6AE806FDE24C04D8A4120036
:103CB80045EC36F07CEC2FF007D1E10E0D6E010ECD
:103CC8000E6E000E106E000E0F6E000E126E050EB8
:103CD800116EB4EC35F0050E0001F36108D0E10E69
:103CE800F325D96EDA6A010EDA22010EDF6E020EB2
:103CF800126E500E136EE30E146EF60E156EE1C1C1
:103D080016F0180E7CEC32F0030E126E500E136E85
:103D1800930E146EF60E156EE2C116F0180E7CECBA
:103D280032F0040E126E500E136ED30E146EF70E90
:103D3800156EE3C116F0180E7CEC32F0050E126E0B
:103D4800500E136E330E146EF70E156EE4C116F096
:103D5800180E7CEC32F0060E126E500E136E830EA7
:103D6800146EF70E156EE5C116F0180E7CEC32F0E5
:103D78000001E4A505D0E495040EF36101D0F32B0E
:103D8800E7A504D0E795F351D8A4F307E1A58AD0B5
:103D9800E19545EC36F075D0F0EC07F083D00101E1
:103DA8009A6B7CEC14F07ED001019A6BDFEC1BF06F
:103DB80079D0910E126EC90E136EC2EC33F0270E35
:103DC8000101E86F100EE76FE66B35D0070E106E35
:103DD800400EBDEC36F0000E146EE7C10DF0E8C1E0
:103DE8000EF0030E106EE80E0F6E99EC33F00D50C6
:103DF800300F5CEC2DF084A084B409D00101E651A9
:103E0800D8A407D0010EE66FBCEC30F002D0010157
:103E1800E66B150E0001CE6F4B0ECD6FBE0EE82E71
:103E2800FED7CD2FFCD7CE2FFAD700000101E80E20
:103E3800E75F030EE85BE751E811D8A4C7D745EC64
:103E480036F0050E106E1E0EBDEC36F01D0E216EFE
:103E5800FE0E226E000E236E18EC33F0150E0001D4
:103E6800CE6F4B0ECD6FBE0EE82EFED7CD2FFCD7F2
:103E7800CE2FFAD700007CEC2FF014D0F3EC28F00A
:103E880011D00001F351000AD8B486D7010AD8B47A
:103E980086D7030AD8B488D7010AD8B48AD7070ABC
:103EA800D8B4ECD70001DEB503D04C50D8A40CD060
:103EB800DE954C6A000E0101536F000E526F010E21
:103EC8009E6F010E07EC35F04C04D8A41200F5D60D
:103ED800020E1A181B10D8A486D00001F251D8A4DB
:103EE80082D04A50D8A47FD001018651D8A409D0E5
:103EF800010E866F000E126ED5C013F02F0E31EC36
:103F080036F0010E4A6E0101A76B010E9B6F000E81
:103F18005D6F000E5C6F010E0001F26F01017D6B99
:103F2800010EA06F82824B8A2FEC37F03CD0010E35
:103F3800F96F000EFA13030EFB13FA99D605D8A4ED
:103F480002D0FA853BD0020ED619D8A437D00C0E71
:103F5800FA1334D0010EF86F000EFA13030EFB1398
:103F6800FA9BD605D8B4EDD7020ED619D8B4EFD738
:103F780025D0010EF96F010EF86F000EFA13030E2B
:103F8800FB13CF0EFA17FF0EFB17D605D8A402D0E5
:103F9800FA8506D0020ED619D8A402D00C0EFA1350
:103FA8002FEC37F00BD00001D951000AD8B4BFD795
:103FB800010AD8B4CFD7030AD8B4DBD70001030E5F
:103FC800FA17FF0EFB17D605D8A402D0FA8506D03B
:103FD800020ED619D8A402D00C0EFA13010EF96FEE
:103FE800010EF86F2FD01A041B10D8A42BD0010192
:103FF8007D51D8A427D04A50D8A424D04A6A0001B9
:10400800F26B01018A6B836B010EA06F866B010E48
:10401800A76F9B6B010E7D6F49960001D605D8A44A
:1040280002D0FA9108D0020ED619D8A404D0FC0EFA
:10403800FA17FF0EFB17FF0EFA17FC0EFB17F96BAA
:10404800F86B4B9A030E1A181B10D8A407D0498690
:1040580001017D6B010E756F010E8A6F040E1A182F
:104068001B10D8A407D04986010E0101756F7D6B1E
:10407800010E836F1A501B10D8A412000101836B24
:104088007D6B4996756B8A6B1200020E1A181B100D
:10409800D8A47ED001018051D8A47AD04A50D8A49F
:1040A80077D0A76B010E9B6F000E5D6F000E5C6FE3
:1040B800010E806F0001F16B82824B80010E516E00
:1040C8005CD0D151D8B4FB9901018851D8A40AD049
:1040D800010E886F000E126ED3C013F02E0E31EC55
:1040E80036F002D00001FB89010E0001F96F000EC5
:1040F800FA13030EFB13FA99D605D8A402D0FA8155
:104108007AD0020ED619D8A476D0030EFA1373D03B
:10411800D151D8A402D0FB9901D0FB89010EF86FC8
:10412800000EFA13030EFB13FA9BD605D8B4E7D793
:10413800020ED619D8B4E9D75ED0D151D8A402D08E
:10414800FB9901D0FB89010EF96F010EF86F000E83
:10415800FA13030EFB13CF0EFA17FF0EFB17D60543
:10416800D8A402D0FA8106D0020ED619D8A402D05B
:10417800030EFA132FEC37F03ED0D751000AD8B40B
:10418800A0D7010AD8B4C4D7030AD8B4D6D733D035
:104198001A041B10D8A42FD00001F151D8A42BD099
:1041A8004A50D8A428D00101826B856B9B6B010E05
:1041B8000001F16F516A4B90499A0101806B010E21
:1041C800A76F0001D751D8B403D0020ED719D8B4BD
:1041D800F96BD705D8B403D0020ED719D8B4F86B49
:1041E800F051D8B404D0FC0EFA17FC0E03D0FC0E24
:1041F800FA17FD0EFB17030E1A181B10D8A409D0C6
:10420800010E0101826F0001F16B498A010E010163
:10421800756F1A501B10D8A412000101856B00019C
:10422800F16B499A0101756B826B1200020E1A1824
:104238001B10D8A46BD001017F51D8A467D04A5075
:10424800D8A464D08751D8A409D0010E876F000E76
:10425800126ED4C013F02F0E31EC36F00101A76BAB
:10426800010E9B6F000E5D6F000E5C6F010E7F6F7D
:104278000001F06B82824B82010E506E3CD0010E21
:10428800F96F000EFA13030EFB13FA99D605D8A49A
:1042980002D0FA856FD0020ED619D8A46BD00C0EB6
:1042A800FA1368D0010EF86F000EFA13030EFB1311
:1042B800FA9BD605D8B4EDD7020ED619D8B4EFD7E5
:1042C80059D0010EF96F010EF86F000EFA13030EA4
:1042D800FB13CF0EFA17FF0EFB17D605D8A402D092
:1042E800FA8506D0020ED619D8A402D00C0EFA13FD
:1042F8002FEC37F03FD0D851000AD8B4C0D7010A04
:10430800D8B4D0D7030AD8B4DCD734D01A041B10D9
:10431800D8A430D00001F051D8A42CD04A50D8A449
:1043280029D00101876B846B816B9B6B010E0001A7
:10433800F06F506A4B92499E01017F6B010EA76F87
:104348000001D851D8B403D0020ED819D8B4F96BEB
:10435800D805D8B403D0020ED819D8B4F86BF151E7
:10436800D8B404D0F30EFA17FC0E03D0F30EFA17E4
:10437800FD0EFB17030E1A181B10D8A408D0010E47
:104388000101816F498E010E756F0001F06B1A50A3
:104398001B10D8A412000101846B0001F06B499E28
:1043A8000101756B816B12001C6E1250D8B412009B
:1043B800080E12601200800E1C601200110E1364A9
:1043C80001D012001204106E1C50BDEC36F01D6AAC
:1043D8001450D8A41CD01350156E166A153A163A04
:1043E800F00E161615500F0B1612F00E15161D505E
:1043F8001526000E1622D89015361636A30E15244B
:10440800F66EB10E1620F76E0800F5501ED0135048
:10441800156E166A153A163AF00E161615500F0B49
:104428001612F00E15161D501526000E1622D890DD
:1044380015361636A30E1524F66EB10E1620F76E35
:104448000800F550FF0A176E1750186E196A1850B1
:104458003BEC35F01D2A070E1D64BAD712C010F0C8
:104468001C50BDEC36F0080E1E6E1450D8A41CD09B
:104478001350156E166A153A163AF00E16161550A0
:104488000F0B1612F00E15161E501526000E1622CA
:10449800D89015361636A30E1524F66EB10E1620D2
:1044A800F76E0800F5501ED01350156E166A153AAF
:1044B800163AF00E161615500F0B1612F00E1516AA
:1044C8001E501526000E1622D89015361636A30E45
:1044D8001524F66EB10E1620F76E0800F550FF0A87
:1044E800176E17501A6E1B6A1A503BEC35F01E2ACD
:1044F8000F0E1E64BAD71200156E1550D8A410AE50
:104508001AD00DC011F00EC012F00FC013F010C079
:1045180014F0111E121E131E141E112A000E122250
:104528001322142211C017F012C018F013C019F08A
:1045380014C01AF008D00DC017F00EC018F00FC044
:1045480019F010C01AF00D500E100F101010D8A44A
:1045580009D0000E0D6E000E0E6E000E0F6E000ECE
:10456800106E1200960E166E06D0162AD8901A32C1
:10457800193218321732000E1714116E000E181463
:10458800126E000E1914136EFE0E1A14146E1150CA
:10459800121013101410D8B40DD0E7D7162A010E34
:1045A8001726000E182219221A22D8901A32193208
:1045B80018321732000E1714116E000E1814126EEE
:1045C800000E1914136EFF0E1A14146E11501210E7
:1045D80013101410D8B407D0E1D71606D8901736A0
:1045E800183619361A3619BE03D0020E1660F5D7DA
:1045F80016A0199ED890163216C011F0126A136AC6
:10460800146A11C014F0136A126A116A1150171251
:10461800125018121350191214501A121550D8A407
:1046280010AE01D01A8E17C00DF018C00EF019C0C8
:104638000FF01AC010F01200910E126EED0E136EEC
:10464800C2EC33F00001D629D8B403D0D651D8A48F
:1046580046D0010E0101996F8282010E0001D66FCA
:104668003AD084B403D0020E0001D66F82B003D0D2
:10467800010E0001D66F0001D605D8A40AD0060E97
:10468800126E010E136E000E146E3B0ED8EC21F064
:1046980009D0060E126E020E136E000E146E3B0E3B
:1046A800D8EC21F084B217D082820101996B45ECD5
:1046B80036F0D6C00DF0010EDFEC35F0060E126EA6
:1046C800090E136E2A0E146EFD0E156E000E166E70
:1046D800000E7CEC32F001019905D8B4C2D7010173
:1046E8000029D8A40AD00001D605D8A403D0010116
:1046F800006B03D0020E0101006F0129D8A409D074
:104708000001D605D8A402D0040E01D0010E010183
:10471800016F0229D8A40AD00001D605D8A403D075
:104728000101026B03D0020E0101026F0329D8A414
:1047380009D00001D605D8A402D0040E01D0020E7B
:104748000101036F0001D729D8A402D0030ED76F47
:10475800D829D8A402D0030ED86FD929D8A402D05A
:10476800020ED96FD129D8A41200010ED16F120000
:10477800000E14EC37F00001CF6F010E14EC37F087
:104788000001D66F020E14EC37F00001D76F030E4C
:1047980014EC37F00001D86F080E14EC37F0000164
:1047A800D96F160E14EC37F00001D36F170E14EC06
:1047B80037F00001D46F180E14EC37F00001D56FF4
:1047C800090E14EC37F00001D16F150E14EC37F018
:1047D8000001D26F040E14EC37F00101006F050ED2
:1047E80014EC37F00101026F060E14EC37F00101EA
:1047F800016F070E14EC37F00101036F130E14EC70
:1048080037F00001DB6F190E14EC37F00001DC6F94
:10481800140E14EC37F00001DD6FF3EC24F0000106
:10482800D129D8B403D0D105D8A403D0010ED16FB3
:10483800FB89D151D8B4FB99D329D8B4D369D429E9
:10484800D8B4D469D529D8A402D0C80ED56FD22936
:10485800D8A402D0140ED26FDB29D8B4DB6BDC29C4
:10486800D8A402D0010EDC6FDD29D8A402D0010E35
:10487800DD6FFAC00DF0FBC00EF0D1EC34F0000E85
:10488800126ED3C013F02E0E31EC36F0000E126EFD
:10489800D4C013F02F0E31EC36F070EC33F0000179
:1048A800DD51F2EC2EF01200700ED36E796A786A40
:1048B800BF0E926E050E936EBD0E946E800E956EB1
:1048C800070E966E0F013881388338953887389BE4
:1048D8003A853A973A993A8B3A9D3A9F396B3B6BAE
:1048E8003C6B040E616E806A816A826A836A8A8C74
:1048F800828247EC32F0340E266EF20EE82EFED796
:10490800262EFCD78EEC36F0340E266EF20EE82EEC
:10491800FED7262EFCD70AEC37F0340E266EF20EA0
:10492800E82EFED7262EFCD7000E1A6EC20E1B6E7E
:10493800010E1C6E000E1D6E7FEC30F0340E266EDC
:10494800F20EE82EFED7262EFCD7800E1A6E250E04
:104958001B6E000E1C6E000E1D6EF7EC30F0340E50
:10496800266EF20EE82EFED7262EFCD7010E09EC95
:1049780036F0340E266EF20EE82EFED7262EFCD721
:10498800010E0D6E010E0E6E000ECAEC35F0340EDF
:10499800266EF20EE82EFED7262EFCD7000E126EDB
:1049A800FF0E136E2E0E31EC36F0000E126EFF0E57
:1049B800136E2F0E31EC36F0BCEC23F020EC23F014
:1049C80082826AEC31F0910E126EE90E136EC2EC1F
:1049D80033F0010E0101A46FF28CF28E1200200E4A
:1049E800EDEC34F00EC0D1F10FC0D2F1220EEDEC97
:1049F80034F00EC0D3F10FC0D4F1240EEDEC34F036
:104A08000EC0D5F10FC0D6F1260EEDEC34F00EC075
:104A1800D7F10FC0D8F1280EEDEC34F00EC0D9F163
:104A28000FC0DAF12A0EEDEC34F00EC0DBF10FC046
:104A3800DCF12C0EEDEC34F00EC0DDF10FC0DEF130
:104A48002E0EEDEC34F00EC0DFF10FC0E0F10101E5
:104A5800D12908E1D229D8A405D0D32903E1D42942
:104A6800D8B408D0D151D211D8A41200D351D4113E
:104A7800D8A41200370EF66EC90EF76E21EED1F0EB
:104A88000F0E0900F5CFDEFFE806FBE2030E176EF6
:104A9800080E166E770EE82EFED7162EFCD7172EA8
:104AA800FAD70000010E106EE00E0F6E200ECCEC4F
:104AB80036F0020E106E030E0F6E220ECCEC36F09E
:104AC800010E106E2C0E0F6E240ECCEC36F0010E7B
:104AD800106E5E0E0F6E260ECCEC36F0030E106EC6
:104AE800840E0F6E280ECCEC36F0030E106E0F6895
:104AF8002A0ECCEC36F0000E106E000E0F6E2C0E47
:104B0800CCEC36F0000E106E050E0F6E2E0ECCECAF
:104B180036F01200766F00017651FF0A716F7151FD
:104B28000D6E0E6A0F6A106A010E80EC22F00DC03D
:104B380034F00EC035F00FC036F010C037F0000E5C
:104B4800386E000E396E7F0E3A6E430E3B6E9BEC4C
:104B58001AF034C072F035C073F036C074F037C044
:104B680075F0000E1F6E000E206E8C0E216E420E28
:104B7800226E72C01BF073C01CF074C01DF075C0AB
:104B88001EF0E8EC12F01BC060F01CC061F01DC004
:104B980062F01EC063F0000E0001646F000E656FC6
:104BA8008C0E666FC20E676F99EC17F060C077F0D5
:104BB80061C078F062C079F063C07AF077C00DF018
:104BC80078C00EF079C00FF07AC010F0000E116EA8
:104BD800000E126E8C0E136EC20E146ED7EC2BF0F4
:104BE800D8B009D0000E0001776F000E786F8C0ED8
:104BF800796FC20E1CD0000E0D6E000E0E6E000EE8
:104C08000F6E000E106E77C011F078C012F079C0E8
:104C180013F07AC014F0D7EC2BF0D8B009D0000EFE
:104C28000001776F000E786F000E796F000E7A6FB3
:104C380077C06DF078C06EF079C06FF07AC070F010
:104C48001200216E2104D8A41200226A0001FB95EB
:104C5800FAC00DF0FBC00EF0D1EC34F0030E206E5C
:104C6800080E1F6E770EE82EFED71F2EFCD7202EBB
:104C7800FAD7000081B007D04982010E226E8A9CC3
:104C880001016E6B0BD049920001EA05D8A403D04C
:104C9800020EAEEC36F08A8C0101716B2250D8B44A
:104CA80080B405D04980020E226E6D6B03D0499006
:104CB800010E726F2250D8B481B405D0498C030E0E
:104CC800226E6C6B02D0499C706B0001EA5122186D
:104CD800D8A404D001016A51D8A43DD0010E010125
:104CE8006A6F020EAEEC36F02AD0020E126E550E26
:104CF800136E3F0E146EF60E156E000E166E140E21
:104D08007CEC32F026D0020E126E410E136EAF0EFE
:104D1800146EF80E156E000E166E1E0E7CEC32F038
:104D280018D0020E126E220E136E730E146EFB0E46
:104D3800156E000E166E280E7CEC32F00AD022504A
:104D4800010AD8B4D2D7030AD8B4DDD7010AD8B437
:104D5800E8D722C0EAF00001FB85FAC00DF0FBC0DD
:104D68000EF0D1EC34F00001F66B1200176E84D00F
:104D78000EC00FF0010E106E0F2A02D0D890103618
:104D88000F2EFCD70DC011F0020E1126010E126E67
:104D9800112A02D0D8901236112EFCD70DC013F06C
:104DA800010E1326010E146E132A02D0D890143661
:104DB800132EFCD70DC015F0010E166E152A02D061
:104DC800D8901636152EFCD7165014101210101045
:104DD800FF0A48164950D8A412004850D8A4120017
:104DE8000101756B12000EC00FF0010E106E0F2A34
:104DF80002D0D89010360F2EFCD70DC011F0010E3E
:104E0800126E112A02D0D8901236112EFCD71250E9
:104E180010104812010E0101756F12000EC00FF03C
:104E2800010E106E0F2A02D0D89010360F2EFCD724
:104E38000DC011F0010E1126010E126E112A02D0BA
:104E4800D8901236112EFCD7E2D70EC00FF0010E03
:104E5800106E0F2A02D0D89010360F2EFCD70DC036
:104E680011F0020E1126010E126E112A02D0D890EE
:104E78001236112EFCD7CBD71750010AD8B478D7E1
:104E8800030AD8B4B0D7010AD8B4C8D7070AD8A437
:104E98001200DBD71F6E1F50D8B412000101A46B9B
:104EA800010E9B6F000E5EEC2EF0206E000E0D6E54
:104EB800060E0E6E2050BAEC26F048A00ED0040E56
:104EC800126E2E0E136E720E146EFA0E156E000E02
:104ED800166E230E7CEC32F023D048A20ED0040EBE
:104EE800126E2E0E136E440E146EFA0E156E000E10
:104EF800166E230E7CEC32F013D048A40ED0040EAC
:104F0800126E570E136EE80E146EF50E156E000E27
:104F1800166E190E7CEC32F003D0040EAEEC36F0AF
:104F2800020E0001D619D8A43FD0010E5EEC2EF077
:104F3800216E030E0D6E070E0E6E2150BAEC26F090
:104F480048A60ED0050E126E2D0E136EA00E146E0E
:104F5800FA0E156E000E166E230E7CEC32F027D07A
:104F680048A80ED0050E126E2E0E136E160E146E75
:104F7800FA0E156E000E166E230E7CEC32F017D06A
:104F880048AA0ED0050E126E570E136E910E146EAF
:104F9800F50E156E000E166E190E7CEC32F007D069
:104FA800050EAEEC36F003D0050EAEEC36F001017E
:104FB8009B6B1200196E5150D8A403D05050D8B42E
:104FC80005D0000E1B6E010E1A6E06D043EC37F0AA
:104FD800186E18501A6E1B6A1AC01EF05150D8A4C9
:104FE80003D05050D8B405D0000E1D6E010E1C6EB3
:104FF80006D03DEC37F0186E18501C6E1D6A1CC0A8
:105008001FF01950D8B412004A50D8A412001E50EC
:10501800D8A410D0010E01019B6F000E5D6F000E29
:105028005C6F010E0001F26F82824B84000E6DEC02
:105038002BF018D00001F205D8A414D001019B6B05
:105048000001F26B2FEC37F04B940001CF0EFA17EA
:10505800FC0EFB171E50D8B405D01F04D8A402D0EC
:10506800F96BF86B1F50D8A40FD0010E01019B6F8C
:10507800000E5D6F000E5C6F010E7E6F82824B86A4
:10508800010E6DEC2BF016D001017E05D8A412D0CC
:105098009B6B7E6B2FEC37F04B960001CF0EFA1707
:1050A800FC0EFB171E50D8B405D01F04D8A402D09C
:1050B800F96BF86BF8C011F0FAC012F0FBC013F0EE
:1050C8000001F9516EEC35F01200246E24C09DF1F8
:1050D8004950D8A403D04850D8B41BD0000E126E43
:1050E800330E136EF00E146EF80E156E24C016F003
:1050F800240E7CEC32F00001FB870101666B000E88
:10510800536F000E526F82820001EF6BEE6BED6BF6
:105118003ED00001D605D8A420D0EF51D8A434D071
:10512800EE51D8A431D0ED51D8A42ED0000E106E77
:10513800230EBDEC36F0640E216EFE0E226E000EBC
:10514800236E18EC33F00001FB97010E0001EF6F9E
:10515800010EEE6F010EED6F17D0EF51D8B406D0E7
:10516800EE51D8B403D0ED51D8A40ED0000E106E75
:10517800230EBDEC36F06E0E216EFE0E226E000E72
:10518800236E18EC33F0E1D7010E0101666F49A6D2
:1051980049BA0AD049BE08D0690E126E030E136EC2
:1051A8000A0E6BEC36F0120048A048B20AD048B498
:1051B80008D0690E126E040E136E0A0E6BEC36F0F0
:1051C800120048B6120048B8120048BA1200690E18
:1051D800126E050E136E0A0E6BEC36F0120045ECDB
:1051E80036F00101986B060E126E090E136E2A0E28
:1051F800146EFD0E156E000E166E000E7CEC32F06D
:10520800000E126E310E136E550E146EF90E156ED9
:10521800010E166E280E7CEC32F0020E126E190E7C
:10522800136EEF0E146EFC0E156E000E166E640EE5
:105238007CEC32F0040E126E110E136E070E146E13
:10524800FD0E156E000E166E640E7CEC32F0060E26
:10525800126E1E0E136ED40E146EFC0E156E000E1A
:10526800166E640E7CEC32F0020E106E320EBDEC3F
:1052780036F0500E216EFF0E226E000E236E18ECD3
:1052880033F0040E106E320EBDEC36F0840E216E33
:10529800FF0E226E000E236E18EC33F0060E106E11
:1052A8000A0EBDEC36F04E0E216EFE0E226E000E7A
:1052B800236E18EC33F017D00001E7A503D0E7956B
:1052C8000DEC16F00001E4A503D0E4951EEC19F0EE
:1052D8000001DEA508D0DE95010E0101986F45ECAE
:1052E80036F07CEC2FF001019805D8B41200E4D711
:1052F8000FC015F0166A176A0E34153601E31680CA
:1053080015501D6E1D50D8A409D0000E0D6E000E4C
:105318000E6E000E0F6E000E106E120013C015F008
:10532800166A176A1234153601E3168015501C6E7A
:105338001C50D8B4EAD70E8EFF0E0D16FF0E0E16AF
:10534800000E0F16128EFF0E1116FF0E1216000E0B
:105358001316000E186E000E196E000E1A6E000E4F
:105368001B6E7F0E1D5E1C50980F1D5E180E1C6E66
:10537800D890183619361A361B3611500D5C125053
:105388000E5813500F58D8A007D011500D5E125068
:105398000E5A13500F5A1880D8900D360E360F3605
:1053A8001C2EE6D71DAE0DD01D50800A970FD8A031
:1053B800ACD7D8901B321A32193218321D3EF9D7A1
:1053C8000DD0170E1D6407D0A0D7D89018361936FF
:1053D8001A361B361D061D50D8A4F7D718C00DF075
:1053E80019C00EF01AC00FF01BC010F012006ED0DA
:1053F80020EE02F00D50D9260E50DA220DC0E1FF42
:105408000EC0E2FFDE50E65CDE50E658D8B012006F
:1054180020EE02F00D50D9260E50DA22DE06000EDC
:10542800DD5A120020EE06F00D50D9260E50DA2271
:1054380010EE04F00D50E1260E50E222DE50E65C3C
:10544800DE50E658D8B0120020EE06F00D50D926EE
:105458000E50DA22DE06000EDD5A120020EE0AF0A7
:105468000D50D9260E50DA2210EE08F00D50E12624
:105478000E50E222DE50E65CDE50E658D8B012004C
:1054880020EE0AF00D50D9260E50DA22DE06000E64
:10549800DD5A120020EE0EF00D50D9260E50DA22F9
:1054A80010EE0CF00D50E1260E50E222DE50E65CC4
:1054B800DE50E658D8B0120020EE0EF00D50D92676
:1054C8000E50DA22DE06000EDD5A12000F50000AD6
:1054D800D8B48ED7010AD8B4A5D7030AD8B4BED792
:1054E800010AD8A41200D6D76CD020EE02F00D50D5
:1054F800D9260E50DA220DC0E1FF0EC0E2FFDE50C1
:10550800E65CDE50E658D8B012000DC0D9FF0EC0D8
:10551800DAFFDE2A000EDD22120020EE06F00D5022
:10552800D9260E50DA2210EE04F00D50E1260E5066
:10553800E222DE50E65CDE50E658D8B0120020EEDB
:1055480004F00D50D9260E50DA22DE2A000EDD2294
:10555800120020EE0AF00D50D9260E50DA2210EE75
:1055680008F00D50E1260E50E222DE50E65CDE50D7
:10557800E658D8B0120020EE08F00D50D9260E508B
:10558800DA22DE2A000EDD22120020EE0EF00D5087
:10559800D9260E50DA2210EE0CF00D50E1260E50EE
:1055A800E222DE50E65CDE50E658D8B0120020EE6B
:1055B8000CF00D50D9260E50DA22DE2A000EDD221C
:1055C80012000F50000AD8B490D7010AD8B4A5D752
:1055D800030AD8B4BED7010AD8A41200D6D70F340C
:1055E80010341A6E1A50D8A409D0000E0D6E000E91
:1055F8000E6E000E0F6E000E106E1200133414346F
:10560800196E1950D8B4F1D70F8EFF0E0D16FF0E74
:105618000E16FF0E0F16000E1016138EFF0E111623
:10562800FF0E1216FF0E1316000E1416000E156E3E
:10563800000E166E000E176E000E186E7F0E1A5EA4
:105648001950A00F1A5E200E196ED890153616360E
:105658001736183611500D5C12500E5813500F584B
:1056680014501058D8A009D011500D5E12500E5A7F
:1056780013500F5A1450105A1580D8900D360E3604
:105688000F361036192EE1D71AAE0DD01A50800AEF
:105698009F0FD8A0AAD7D8901832173216321532D1
:1056A8001A3EF9D70DD01F0E1A6407D09ED7D8908E
:1056B80015361636173618361A061A50D8A4F7D7DC
:1056C80015C00DF016C00EF017C00FF018C010F07E
:1056D8001200176E1ED0170E0001FB6F100EFA6F26
:1056E800010EF96F44D0170E0001FB6F200EFA6F00
:1056F80007D0170E0001FB6F300EFA6F010EF96F1D
:10570800010EF86F34D0170E0001FB6F000EFA6F10
:105718002ED01750020D000EF324D96E010EF4207E
:10572800DA6EDF50000AD8B4D6D7010AD8B4DBD76E
:10573800030AD8B4DED7010AD8B4E5D718D037ECB5
:1057480037F00009D8A412001750020D010EF324F7
:10575800D96E010EF420DA6EDF50E8EC36F0120054
:10576800170E0E6EC00E0D6ED1EC34F012001750ED
:10577800020D010EF324D96E010EF420DA6EDF500B
:10578800010AD8B4DCD7030AD8B4D9D7010AD8B4E7
:10579800D6D7070AD8B4D3D7010AD8B4D0D7030AC2
:1057A800D8A41200DDD7000E0D14156E000E0E14CD
:1057B800166E800E0F14176E7F0E1014186E15508B
:1057C800161017101810D8A408D0000E0D6E000E71
:1057D8000E6E000E0F6E000E106E000E1114156E78
:1057E800000E1214166E800E1314176E7F0E14140A
:1057F800186E1550161017101810D8A408D0000EDF
:10580800116E000E126E000E136E000E146E10AEA6
:1058180009D00D6C0E1ED8B00E2A0F1ED8B00F2A54
:10582800800E105614AE09D0116C121ED8B0122A70
:10583800131ED8B0132A800E1456000E0D1A000E2F
:105848000E1A000E0F1A800E101A000E111A000EF2
:10585800121A000E131A800E141A11500D5C1250F1
:105868000E5813500F5814501058D8B002D0D89072
:105878001200D8801200176E030E17605CD0125009
:1058880098EC34F00DC018F00EC019F013C0D9FF11
:1058980014C0DAFFDE50185CDE501958D8A011D0B9
:1058A80020EE02F01350D9261450DA221850DE5C8C
:1058B8001950DE58D8A005D0000E136E010E126ED6
:1058C800120020EE04F01350D9261450DA22DE50CC
:1058D800185CDE501958D8A011D020EE06F01350ED
:1058E800D9261450DA221850DE5C1950DE58D8A098
:1058F80005D0000E136E020E126E120020EE08F094
:105908001350D9261450DA22DE50185CDE5019588C
:10591800D8A011D020EE0AF01350D9261450DA225C
:105928001850DE5C1950DE58D8A005D0000E136E52
:10593800030E126E1200000E136E000E126E12008D
:105948003F344034466E4650D8A409D0000E3D6E10
:10595800000E3E6E000E3F6E000E406E12003DC0FF
:1059680041F03EC042F03FC043F040C044F0200E3A
:1059780005D0D8904432433242324132E82EF9D72A
:105988004150456E3F8EFF0E3D16FF0E3E16FF0E30
:105998003F16000E4016960E465E46AE0DD0465097
:1059A800800A970FD8A0D2D7D89040323F323E32E3
:1059B8003D32463EF9D70DD01F0E466407D0C6D7F4
:1059C800D8903D363E363F36403646064650D8A437
:1059D800F7D74550D8B408D0401E3F1E3E1E3D6C38
:1059E800000E3E223F2240223DC03DF03EC03EF028
:1059F8003FC03FF040C040F012004CD00DC0D9FF6E
:105A08000EC0DAFFDE50DE10D8B412000DC0D9FF88
:105A18000EC0DAFFDE06000EDD5A120020EE04F09A
:105A28000D50D9260E50DA22DE50DE10D8B41200FE
:105A380020EE04F00D50D9260E50DA22DE06000EB4
:105A4800DD5A120020EE08F00D50D9260E50DA2249
:105A5800DE50DE10D8B4120020EE08F00D50D92622
:105A68000E50DA22DE06000EDD5A120020EE0CF08F
:105A78000D50D9260E50DA22DE50DE10D8B41200AE
:105A880020EE0CF00D50D9260E50DA22DE06000E5C
:105A9800DD5A12000F50000AD8B4B0D7010AD8B4A2
:105AA800BDD7030AD8B4CED7010AD8A41200DED7CE
:105AB8001F6E1F0E1F6412007A0E1F6401D01200A1
:105AC800206A1450D8A41BD01F50050D350EF3249E
:105AD800156E950EF420166E20501526000E16220F
